:100000000C9416010C9433010C9433010C943301BD
:100010000C9433010C9433010C9433010C94330190
:100020000C9433010C9433010C9477040C94B104B8
:100030000C9433010C9433010C9433010C94330170
:100040000C9433010C9433010C9433010C94330160
:100050000C9433010C9433010C9433010C94330150
:100060000C9433010C9433010C9433010C94330140
:100070000C9433010C9433010C9433010C94330130
:100080000C9433010C9433010C9433010C94330120
:100090000C9433010C9433010C9433010C94330110
:1000A0000C9433010C9433010C943301180415049F
:1000B00012040F040C040904060403040004FD03E5
:1000C000FA03F703F403F103EE03EB03E803E5039C
:1000D000E203DF03DC03D903D603D303D003CD034C
:1000E000CA03C703C403C103BE03BB03B803B503FC
:1000F000B203AF03AC03A903A603A303A0039D03AC
:100100009A039703940391038E038B03880385035B
:1001100082037F037C0379037603730370036D030B
:100120006A036703640361035E035B035803546857
:10013000652074696D65206265747765656E206CF5
:10014000617374205820592070756C736520616E3E
:10015000642053796E632070756C73652069733AFF
:1001600000506C65617365207761697420666F72F9
:1001700020737461727465640000010000AD0112A7
:1001800000020000BF01430003000002020401035B
:100190000904060212020309041A020603030904F1
:1001A0002202080001C112018036018136120100CD
:1001B0000202000010C0167A0400010102030109C6
:1001C000024300020100C0320904000001020201E2
:1001D0000005240010010524010101042402060584
:1001E00024060001070582031000400904010002F3
:1001F0000A000000070503024000000705840240D2
:1002000000000403090412034A002E0020004600E7
:10021000690065006E006500000006034D003200B5
:1002200000000803340031003000000011241FBE1C
:10023000CFEFDAE0DEBFCDBF11E0A0E0B1E0E4E057
:10024000F0E102C005900D92A830B107D9F711E096
:10025000A8E0B1E001C01D92AE31B107E1F70E9404
:1002600035010C9400080C9400001F93CF93DF938A
:100270000E944F0280919100806480939100809150
:1002800091008260809391008091910081608093C1
:1002900091008FEF93ECA9E081509040A040E1F7EE
:1002A00000C0000081E691E00E9419068AE00E94E9
:1002B000A8028DE00E94A80210E4C1E0D0E0C59B36
:1002C000FECF8091960090919700909313018093B8
:1002D0001201C59A80919100812780939100C59B5E
:1002E000FECF809196009091970090931701809394
:1002F000160120911201309113018217930748F4DF
:1003000020953095280F391F30931D0120931C0133
:1003100006C0821B930B90931D0180931C01C59A0C
:100320008091910081278093910080911C01909190
:100330001D010C978833910590F580910A019091E9
:100340000B01019690930B0180930A018230910575
:100350009CF020910C0130910D012130310521F4E8
:1003600010920D0110920C018330910529F4D09365
:100370000901C09308010BC08430910541F410922B
:100380000B0110920A01109209011092080180914C
:10039000120190911301909319018093180180919B
:1003A0001C0190911D0103978330910508F052C004
:1003B00010920B0110920A0180910C0190910D0195
:1003C00081309105F1F42091120130911301809157
:1003D0001801909119012817390738F0281B390B9B
:1003E00030931B0120931A0108C080959095820FCD
:1003F000931F90931B0180931A0110920D0110928C
:100400000C0180910801909109018130910511F54D
:1004100020911201309113018091180190911901DE
:100420002817390738F0281B390B30931501209312
:10043000140108C080959095820F931F9093150129
:1004400080931401D0930D01C0930C011092090107
:10045000109208018EE291E00E9419068AE00E9443
:10046000A8028DE00E94A8028091140190911501CC
:100470000E94880683E00E94A80280911A01909150
:100480001B010E9488068AE00E94A8028DE00E945B
:10049000A80215CF8091E80080FFFCCF089581E08D
:1004A0008093D70080EA8093D80082E189BD09B4A7
:1004B00000FEFDCF80E98093D8001092E0001092FA
:1004C0000E0110920F018CE08093E2007894089561
:1004D00080910E0108959FB7F89480910E018823B2
:1004E00039F083E08093E9008091E80085FD03C046
:1004F0009FBF8FEF08958091F1002091E80025FDC6
:1005000003C02BE62093E8009FBF08959FB7F8949F
:1005100080910E01882331F083E08093E90080917F
:10052000F20001C080E09FBF089580910E018823F2
:1005300071F08FB7F89493E09093E9009BE602C0C6
:100540009093E8002091E80025FDFACF8FBF089531
:1005500090910E019923D1F19FB7F89424E0209354
:10056000E90020911101222341F02091E80025FDAE
:1005700002C09FBF2BC0109211012091E400275EA2
:1005800034E04091E80045FD12C09FBF9091E40027
:10059000921721F481E08093110118C090910E010F
:1005A0009923B1F09FB7F8943093E900EACF809394
:1005B000F1008091E80085FD03C08AE38093E800A4
:1005C00085E0809310019FBF80E008958FEF08952C
:1005D0008FEF089590910E019923D9F09FB7F89469
:1005E00024E02093E9002091E80025FD03C09FBF8F
:1005F0008FEF08958093F1008091E80085FD03C09E
:100600008AE38093E80085E0809310019FBF80E03B
:1006100008958FEF0895CF93DC0180910E01882318
:1006200009F41AC12FB7F89484E08093E90080910F
:100630001101882309F405C18091E80085FD02C0FD
:100640002FBF0AC110921101FCC08091E400875EA7
:100650009091E80095FD13C02FBF9091E40098178A
:1006600021F481E080931101F7C090910E0199234C
:1006700009F4F2C02FB7F894C093E900E9CF809154
:10068000F200E52FE81B8E2F90E06817790708F439
:10069000E62F6E1B7109F0E0E134F10508F0C5C0EA
:1006A000EA5AFF4FEE0FFF1F0590F491E02D0994D9
:1006B0008D918093F1008D918093F1008D918093C5
:1006C000F1008D918093F1008D918093F1008D91D7
:1006D0008093F1008D918093F1008D918093F100D2
:1006E0008D918093F1008D918093F1008D91809395
:1006F000F1008D918093F1008D918093F1008D91A7
:100700008093F1008D918093F1008D918093F100A1
:100710008D918093F1008D918093F1008D91809364
:10072000F1008D918093F1008D918093F1008D9176
:100730008093F1008D918093F1008D918093F10071
:100740008D918093F1008D918093F1008D91809334
:10075000F1008D918093F1008D918093F1008D9146
:100760008093F1008D918093F1008D918093F10041
:100770008D918093F1008D918093F1008D91809304
:10078000F1008D918093F1008D918093F1008D9116
:100790008093F1008D918093F1008D918093F10011
:1007A0008D918093F1008D918093F1008D918093D4
:1007B000F1008D918093F1008D918093F1008D91E6
:1007C0008093F1008D918093F1008D918093F100E1
:1007D0008D918093F1008D918093F1008D918093A4
:1007E000F1008D918093F1008D918093F1008D91B6
:1007F0008093F1008D918093F1008D918093F100B1
:100800008D918093F1008D918093F1008D91809373
:10081000F1008D918093F1008D918093F1008D9185
:100820008093F1008D918093F1008D918093F10080
:100830008091E80085FD02C04093E80030931001EC
:1008400004C0C4E050E44AE335E06115710509F0E5
:10085000FCCE2FBF80E001C08FEFCF9108958FB7FE
:10086000F89490911001992341F094E09093E9005D
:100870009AE39093E800109210018FBF0895809141
:10088000040108958091050108958091060108955D
:1008900080910F0108959FB7F89420910E012223B3
:1008A00039F022E02093E9003091E80035FD03C0E3
:1008B0009FBF8FEF089531EA3093F10030E230931B
:1008C000F1001092F1001092F1001092F1001092DC
:1008D000F1002093F1001092F1008093F10010924A
:1008E000F1008AE38093E8009FBF80E008951F92A3
:1008F0000F920FB60F9211248F939F938091E10076
:100900001092E10083FF11C01092E90091E09093F2
:10091000EB001092EC0092E19093ED0098E0909340
:10092000F00010920E0110920F0182FF13C080910F
:100930000E01882379F080911001882359F08150AD
:1009400080931001882331F484E08093E9008AE3E6
:100950008093E8009F918F910F900FBE0F901F9092
:1009600018951F920F920FB60F921124EF92FF92DB
:100970000F931F932F933F934F935F936F937F93A7
:100980008F939F93AF93BF93EF93FF93DF93CF9397
:100990000F92CDB7DEB71092E9008091E80083FF97
:1009A0002DC12091F1003091F100E090F100FF2481
:1009B0004091F100942F80E0E82AF92A0091F1009B
:1009C00010E04091F100942F80E0082B192B6091EA
:1009D000F100A091F10082EF8093E800363009F039
:1009E00059C080E891E09C0125503040FC013797C8
:1009F000459154914E155F05F9F4F90145915491D3
:100A000040175107C9F42E5F3F4FF901859194912A
:100A10002E5F3F4FF9012491462F50E07A2F60E07E
:100A2000462B572B4F3F510519F010F04FEF50E078
:100A3000421750F4242F08C00796295F3F4FF1E07A
:100A40008A3A9F0799F6DAC0AEEF4091E80050E08D
:100A5000BA016570707061157105B9F342FDD1C0BE
:100A6000322F213108F030E1AC01632F07C0FA01C9
:100A70004F5F5F4FE491E093F10061506623B9F757
:100A8000830F911D231BA093E8002223F1F6303140
:100A9000E1F2B7C0353051F48EEF8093E8000E9448
:100AA0004A028E2D80688093E300ABC0393051F547
:100AB000222309F0A3C0E0920E0110920F011092C0
:100AC00010018EEF8093E80041E083EA91E04093CB
:100AD000E900FC010196E491E093EB00EE2369F05C
:100AE0009C012F5F3F4FFC0184918093EC00C90172
:100AF0000196F90124912093ED004F5F453039F7BD
:100B00008EE177C0383051F4203809F077C00E9468
:100B10004A0280910E018093F10048C0313279F48D
:100B2000213A09F06BC00E944A02E0E0F1E08191B5
:100B30008093F10041E0E730F407C9F737C0303265
:100B4000A1F4213209F05AC08091E80082FFFCCF65
:100B5000E0E0F1E08091F100819381E0E730F80777
:100B6000C9F78BEF8093E80021C0323241F4213283
:100B700009F044C0E0920F010E944A0217C03323DB
:100B8000C9F429830E944A022981223851F4009332
:100B9000E9009091EB0081E095FF80E01092E90080
:100BA00001C080E08093F1001092F1008EEF8093FD
:100BB000E80027C0313011F0333001F52230F1F474
:100BC000E114F104D9F40F77802F81508430B0F410
:100BD0008EEF8093E8000093E900333079F089E1EB
:100BE0008093EB0081E090E002C0880F991F0A9586
:100BF000E2F78093EA001092EA0003C081E280935A
:100C0000EB000F90CF91DF91FF91EF91BF91AF91EA
:100C10009F918F917F916F915F914F913F912F9114
:100C20001F910F91FF90EF900F900FBE0F901F90AC
:100C300018951F93CF93DF93EC01FE012196149139
:100C4000112349F01A3019F48DE00E94A802812F77
:100C50000E94A802F2CFDF91CF911F9108958A30B0
:100C600010F490E301C097E3890F0E94A802089551
:100C7000CF93C82F82958F700E942F068C2F8F7074
:100C80000E942F06CF910895CF93C82F892F0E94DD
:100C900038068C2F0E943806CF9108950E9438069E
:100CA0000895EF92FF920F931F93DF93CF93CDB7E9
:100CB000DEB727970FB6F894DEBF0FBECDBF8E010B
:100CC0000F5F1F4F27E0F80111922A95E9F7B8014D
:100CD0004AE050E00E942A0788E0E82EF12CEC0E52
:100CE000FD1EF80181918F01882311F00E94A80256
:100CF0000E151F05B1F727960FB6F894DEBF0FBE8D
:100D0000CDBFCF91DF911F910F91FF90EF9008958C
:100D1000EF92FF920F931F93DF93CF9300D000D0F9
:100D200000D0CDB7DEB78E010F5F1F4F26E0F80170
:100D300011922A95E9F7B8014AE050E00E94A40711
:100D400096E0E92EF12CEC0EFD1EF80181918F0149
:100D5000882311F00E94A8020E151F05B1F72696F0
:100D60000FB6F894DEBF0FBECDBFCF91DF911F91BC
:100D70000F91FF90EF900895EF92FF920F931F93C2
:100D8000DF93CF93CDB7DEB72B970FB6F894DEBFC6
:100D90000FBECDBF8E010F5F1F4F2BE0F8011192E8
:100DA0002A95E9F7A8012AE030E00E944B072CE0E1
:100DB000E22EF12CEC0EFD1EF80181918F018823AB
:100DC00011F00E94A8020E151F05B1F72B960FB661
:100DD000F894DEBF0FBECDBFCF91DF911F910F9171
:100DE000FF90EF900895EF92FF920F931F93DF9380
:100DF000CF93CDB7DEB72B970FB6F894DEBF0FBEFB
:100E0000CDBF8E010F5F1F4F2BE0F80111922A9585
:100E1000E9F7A8012AE030E00E947F073BE0E32EDB
:100E2000F12CEC0EFD1EF80181918F01882311F049
:100E30000E94A8020E151F05B1F72B960FB6F89465
:100E4000DEBF0FBECDBFCF91DF911F910F91FF90FD
:100E5000EF900895FB019F01E8944230C4F04532C1
:100E6000B4F44A3029F497FB1EF4909581959F4F76
:100E7000642F77270E94CA07805D8A330CF0895D52
:100E80008193CB010097A1F716F45DE25193108294
:100E9000C9010C94BA07FA01CF93FF93EF93223064
:100EA00044F1253234F5C22FE894CA3049F497FB57
:100EB0003EF490958095709561957F4F8F4F9F4F31
:100EC0002C2F332744275527FF93EF930E94DE07EB
:100ED000EF91FF91605D6A330CF0695D6193B90138
:100EE000CA01605070408040904051F716F4CDE246
:100EF000C19310828F919F91CF910C94BA07FA0100
:100F0000CF93FF93EF932230CCF02532BCF4C22F65
:100F10002C2F332744275527FF93EF930E94DE079A
:100F2000EF91FF91605D6A330CF0695D6193B901E7
:100F3000CA01605070408040904051F710828F91FC
:100F40009F91CF910C94BA07FB019F01423074F03E
:100F5000453264F4642F77270E94CA07805D8A3384
:100F60000CF0895D8193CB010097A1F71082C90134
:100F70000C94BA07DC01FC01672F71917723E1F72C
:100F8000329704C07C916D9370836291AE17BF0756
:100F9000C8F30895AA1BBB1B51E107C0AA1FBB1FC2
:100FA000A617B70710F0A61BB70B881F991F5A95F5
:100FB000A9F780959095BC01CD010895A1E21A2E64
:100FC000AA1BBB1BFD010DC0AA1FBB1FEE1FFF1FED
:100FD000A217B307E407F50720F0A21BB30BE40B3D
:100FE000F50B661F771F881F991F1A9469F7609584
:100FF0007095809590959B01AC01BD01CF0108953E
:04100000F894FFCF92
:0810040000E1000000000800FB
:00000001FF
