:100000000C9456000C946B000C946B000C946B00D9
:100010000C946B000C946B000C946B000C946B00B4
:100020000C946B000C946B000C946B000C946B00A4
:100030000C946B000C946B000C946B000C946B0094
:100040000C946B000C946B000C946B000C946B0084
:100050000C946B000C946B000C946B000C946B0074
:100060000C946B000C946B000C946B000C946B0064
:100070000C946B000C946B000C946B000C946B0054
:100080000C946B000C946B000C946B000C946B0044
:100090000C946B000C946B000C946B000C946B0034
:1000A0000C946B000C946B000C946B0011241FBE1D
:1000B000CFEFDAE0DEBFCDBF11E0A0E0B1E0ECE7CA
:1000C000F6E002C005900D92A830B107D9F70E9462
:1000D0006D000C943C030C9400002F923F924F92C1
:1000E0005F926F927F928F929F92AF92BF92CF92C8
:1000F000DF92EF92FF920F931F93DF93CF93CDB7D1
:10010000DEB72A970FB6F894DEBF0FBECDBF80E8EA
:1001100080936100109261003E9A469A80E197E2D6
:1001200020E931E0F9013197F1F70197D9F760E063
:1001300070E080E89FE3209100013091010140913F
:100140000201509103010E94CC0120E030E040E028
:100150005FE30E94D90220E030E04AE754E40E94C5
:10016000D9026D837E838F8398878091040190915B
:100170000501A0910601B091070189839A83AB83A1
:10018000BC8360E070E080E89FE329813A814B8185
:100190005C810E9463019B01AC016D817E818F8136
:1001A00098850E94D9021B012C0120E030E04AE72B
:1001B00055E40E94D9023B014C010E943402698738
:1001C0007A873E9A88B190E4892788B9C401B3013F
:1001D00020E030E040E85FE30E94C80187FD23C0D3
:1001E000C401B30120E03FEF4FE757E40E94D5027E
:1001F000181624F089859A859C0117C0C201B101A7
:1002000020E030E040E251E40E94D9020E94340232
:1002100006C080E991E00197F1F7615070406115E7
:100220007105B9F705C021E030E0C9010197F1F788
:100230003E9A88B1A0E48A2788B96D817E818F813A
:10024000988529813A814B815C810E94D9025B01AA
:100250006C0120E030E04AE755E40E94D9027B01BE
:100260008C0120E030E040E85FE30E94C801882371
:100270001CF461E070E023C0C801B70120E03FEF4B
:100280004FE757E40E94D5021816ACF4C601B50139
:1002900020E030E040E251E40E94D9020E943402A2
:1002A00006C080E991E00197F1F761507040611557
:1002B0007105B9F786CFC801B7010E943402CB019E
:1002C0000197F1F77ECF5058BB27AA270ED033C134
:1002D00024D130F029D120F031F49F3F11F41EF4E5
:1002E00019C10EF4E095E7FB0FC1E92F35D180F37A
:1002F000BA17620773078407950718F071F49EF523
:100300004DC10EF4E0950B2EBA2FA02D0B01B901B3
:1003100090010C01CA01A0011124FF27591B99F07B
:10032000593F50F4503E68F11A16F040A22F232F87
:10033000342F4427585FF3CF469537952795A795D7
:10034000F0405395C9F77EF41F16BA0B620B730B7E
:10035000840BBAF09150A1F0FF0FBB1F661F771FEF
:10036000881FC2F70EC0BA0F621F731F841F48F4A4
:10037000879577956795B795F7959E3F08F0B3CF2A
:100380009395880F08F09927EE0F97958795089514
:1003900097D008F481E008950CD0CDC0C5D040F0CE
:1003A000BCD030F021F45F3F19F0AEC05111F7C05E
:1003B000B1C0D2D098F39923C9F35523B1F3951B5B
:1003C000550BBB27AA2762177307840738F09F5F76
:1003D0005F4F220F331F441FAA1FA9F333D00E2EE5
:1003E0003AF0E0E830D091505040E695001CCAF752
:1003F00029D0FE2F27D0660F771F881FBB1F261717
:1004000037074807AB07B0E809F0BB0B802DBF01E9
:10041000FF2793585F4F2AF09E3F510568F074C044
:10042000BEC05F3FECF3983EDCF386957795679509
:10043000B795F7959F5FC9F7880F911D969587959A
:1004400097F90895E1E0660F771F881FBB1F6217B9
:1004500073078407BA0720F0621B730B840BBA0B77
:10046000EE1F88F7E09508957FD088F09F5790F0B1
:10047000B92F9927B751A0F0D1F0660F771F881FC9
:10048000991F1AF0BA95C9F712C0B13081F086D021
:10049000B1E0089583C0672F782F8827B85F39F0BF
:1004A000B93FCCF3869577956795B395D9F73EF428
:1004B00090958095709561957F4F8F4F9F4F0895D0
:1004C000990F0008550FAA0BE0E8FEEF1616170665
:1004D000E807F907C0F012161306E407F50798F0CD
:1004E000621B730B840B950B39F40A2661F0232BE6
:1004F000242B252B21F408950A2609F4A140A69562
:100500008FEF811D811D089597F99F6780E870E046
:1005100060E008959FEF80EC089500240A94161679
:10052000170618060906089500240A9412161306E1
:10053000140605060895092E0394000C11F488236F
:1005400052F0BB0F40F4BF2B11F460FF04C06F5F8B
:100550007F4F8F4F9F4F089557FD9058440F551F61
:1005600059F05F3F71F04795880F97FB991F61F035
:100570009F3F79F087950895121613061406551FAC
:10058000F2CF4695F1DF08C0161617061806991F18
:10059000F1CF86957105610508940895E894BB270D
:1005A00066277727CB0197F908958ADF08F48FEF44
:1005B00008950BD0C0CFB1DF28F0B6DF18F0952337
:1005C00009F0A2CFA7CF1124EACFC6DFA0F3959FF1
:1005D000D1F3950F50E0551F629FF001729FBB272A
:1005E000F00DB11D639FAA27F00DB11DAA1F649FD6
:1005F0006627B00DA11D661F829F2227B00DA11D89
:10060000621F739FB00DA11D621F839FA00D611D0E
:10061000221F749F3327A00D611D231F849F600D2F
:10062000211D822F762F6A2F11249F5750408AF068
:10063000E1F088234AF0EE0FFF1FBB1F661F771FF4
:10064000881F91505040A9F79E3F510570F05CCF34
:10065000A6CF5F3FECF3983EDCF3869577956795E0
:10066000B795F795E7959F5FC1F7FE2B880F911D12
:0C0670009695879597F90895F894FFCFB0
:08067C000000003FCDCC4C3F13
:00000001FF
