:100000000C94F1000C940E010C940E010C940E0152
:100010000C940E010C940E010C940E010C940E0124
:100020000C940E010C940E010C948B030C94C503DC
:100030000C940E010C940E010C940E010C940E0104
:100040000C940E010C940E010C940E010C940E01F4
:100050000C940E010C940E010C940E010C940E01E4
:100060000C940E010C940E010C940E010C940E01D4
:100070000C940E010C940E010C940E010C940E01C4
:100080000C940E010C940E010C940E010C940E01B4
:100090000C940E010C940E010C940E010C940E01A4
:1000A0000C940E010C940E010C940E012C032903E8
:1000B0002603230320031D031A031703140311034C
:1000C0000E030B03080305030203FF02FC02F902FF
:1000D000F602F302F002ED02EA02E702E402E102B4
:1000E000DE02DB02D802D502D202CF02CC02C90264
:1000F000C602C302C002BD02BA02B702B402B10214
:10010000AE02AB02A802A502A2029F029C029902C3
:100110009602930290028D028A0287028402810273
:100120007E027B027802750272026F026C0200018D
:10013000000062011200020000740143000300008D
:10014000B7010401030904BB011202030904CF0132
:100150000603030904D701080001C112018036011A
:1001600081361201000202000010C0167A0400015C
:100170000102030109024300020100C03209040028
:100180000001020201000524001001052401010103
:10019000042402060524060001070582031000401E
:1001A00009040100020A00000007050302400000E4
:1001B000070584024000000403090412034A002ECC
:1001C0000020004600690065006E00650000000622
:1001D000034D0032000000080334003100300000FD
:1001E000000011241FBECFEFDAE0DEBFCDBF11E06B
:1001F000A0E0B1E0ECE2FEE002C005900D92A83074
:10020000B107D9F711E0A8E0B1E001C01D92A0311B
:10021000B107E1F70E942A010C9414070C94000026
:10022000C59BFECFC59A8091960090919700209132
:100230000C0130910D01821B930B90930F01809361
:100240000E01809196009091970090930D018093FC
:100250000C0108950E946301529A519A8091910075
:1002600081608093910080919100846080939100DF
:100270000E94100180910E0190910F019C012E515E
:1002800030402731310518F45A9A599808C09C011A
:100290002F5030402F30310558F4599A5A980E9407
:1002A0009C058AE00E94BC018DE00E94BC01E0CF69
:1002B00026323105E8F25A985998DACF8091E80051
:1002C00080FFFCCF089581E08093D70080EA80937F
:1002D000D80082E189BD09B400FEFDCF80E980939A
:1002E000D8001092E00010920801109209018CE0F1
:1002F0008093E200789408958091080108959FB753
:10030000F89480910801882339F083E08093E90014
:100310008091E80085FD03C09FBF8FEF0895809115
:10032000F1002091E80025FD03C02BE62093E800B2
:100330009FBF08959FB7F89480910801882331F0FA
:1003400083E08093E9008091F20001C080E09FBFCC
:10035000089580910801882371F08FB7F89493E095
:100360009093E9009BE602C09093E8002091E8009A
:1003700025FDFACF8FBF0895909108019923D1F1FF
:100380009FB7F89424E02093E90020910B012223E9
:1003900041F02091E80025FD02C09FBF2BC01092C4
:1003A0000B012091E400275E34E04091E80045FD18
:1003B00012C09FBF9091E400921721F481E08093D6
:1003C0000B0118C0909108019923B1F09FB7F894E0
:1003D0003093E900EACF8093F1008091E80085FD39
:1003E00003C08AE38093E80085E080930A019FBF01
:1003F00080E008958FEF08958FEF089590910801A0
:100400009923D9F09FB7F89424E02093E900209134
:10041000E80025FD03C09FBF8FEF08958093F10092
:100420008091E80085FD03C08AE38093E80085E0C1
:1004300080930A019FBF80E008958FEF0895CF93C6
:10044000DC0180910801882309F41AC12FB7F894C0
:1004500084E08093E90080910B01882309F405C1B1
:100460008091E80085FD02C02FBF0AC110920B01E8
:10047000FCC08091E400875E9091E80095FD13C078
:100480002FBF9091E400981721F481E080930B0135
:10049000F7C090910801992309F4F2C02FB7F8949E
:1004A000C093E900E9CF8091F200E52FE81B8E2F81
:1004B00090E06817790708F4E62F6E1B7109F0E0E9
:1004C000E134F10508F0C5C0EA5AFF4FEE0FFF1FF7
:1004D0000590F491E02D09948D918093F1008D9118
:1004E0008093F1008D918093F1008D918093F100C4
:1004F0008D918093F1008D918093F1008D91809387
:10050000F1008D918093F1008D918093F1008D9198
:100510008093F1008D918093F1008D918093F10093
:100520008D918093F1008D918093F1008D91809356
:10053000F1008D918093F1008D918093F1008D9168
:100540008093F1008D918093F1008D918093F10063
:100550008D918093F1008D918093F1008D91809326
:10056000F1008D918093F1008D918093F1008D9138
:100570008093F1008D918093F1008D918093F10033
:100580008D918093F1008D918093F1008D918093F6
:10059000F1008D918093F1008D918093F1008D9108
:1005A0008093F1008D918093F1008D918093F10003
:1005B0008D918093F1008D918093F1008D918093C6
:1005C000F1008D918093F1008D918093F1008D91D8
:1005D0008093F1008D918093F1008D918093F100D3
:1005E0008D918093F1008D918093F1008D91809396
:1005F000F1008D918093F1008D918093F1008D91A8
:100600008093F1008D918093F1008D918093F100A2
:100610008D918093F1008D918093F1008D91809365
:10062000F1008D918093F1008D918093F1008D9177
:100630008093F1008D918093F1008D918093F10072
:100640008D918093F1008D918093F1008D91809335
:10065000F1008D918093F1008091E80085FD02C04A
:100660004093E80030930A0104C0C4E050E44AE338
:1006700035E06115710509F0FCCE2FBF80E001C0A7
:100680008FEFCF9108958FB7F89490910A01992335
:1006900041F094E09093E9009AE39093E80010927F
:1006A0000A018FBF0895809104010895809105018A
:1006B00008958091060108958091090108959FB7DA
:1006C000F89420910801222339F022E02093E900D8
:1006D0003091E80035FD03C09FBF8FEF089531EAE8
:1006E0003093F10030E23093F1001092F10010925B
:1006F000F1001092F1001092F1002093F10010929D
:10070000F1008093F1001092F1008AE38093E800F9
:100710009FBF80E008951F920F920FB60F92112491
:100720008F939F938091E1001092E10083FF11C0AD
:100730001092E90091E09093EB001092EC0092E1AE
:100740009093ED0098E09093F000109208011092C1
:10075000090182FF13C080910801882379F08091FC
:100760000A01882359F0815080930A01882331F4CB
:1007700084E08093E9008AE38093E8009F918F9161
:100780000F900FBE0F901F9018951F920F920FB6EB
:100790000F921124EF92FF920F931F932F933F9389
:1007A0004F935F936F937F938F939F93AF93BF9379
:1007B000EF93FF93DF93CF930F92CDB7DEB71092F5
:1007C000E9008091E80083FF2DC12091F100309174
:1007D000F100E090F100FF244091F100942F80E0BF
:1007E000E82AF92A0091F10010E04091F100942FDD
:1007F00080E0082B192B6091F100A091F10082EFAD
:100800008093E800363009F059C085E391E09C01FF
:1008100025503040FC013797459154914E155F05A6
:10082000F9F4F9014591549140175107C9F42E5F2D
:100830003F4FF901859194912E5F3F4FF90124912B
:10084000462F50E07A2F60E0462B572B4F3F510543
:1008500019F010F04FEF50E0421750F4242F08C069
:100860000796295F3F4FF1E08F359F0799F6DAC071
:10087000AEEF4091E80050E0BA016570707061150C
:100880007105B9F342FDD1C0322F213108F030E1BA
:10089000AC01632F07C0FA014F5F5F4FE491E09313
:1008A000F10061506623B9F7830F911D231BA093BC
:1008B000E8002223F1F63031E1F2B7C0353051F4CF
:1008C0008EEF8093E8000E945E018E2D80688093F9
:1008D000E300ABC0393051F5222309F0A3C0E09208
:1008E00008011092090110920A018EEF8093E8002E
:1008F00041E088E591E04093E900FC010196E49134
:10090000E093EB00EE2369F09C012F5F3F4FFC0169
:1009100084918093EC00C9010196F9012491209300
:10092000ED004F5F453039F78EE177C0383051F434
:10093000203809F077C00E945E0180910801809301
:10094000F10048C0313279F4213A09F06BC00E94BD
:100950005E01E0E0F1E081918093F10041E0E73059
:10096000F407C9F737C03032A1F4213209F05AC078
:100970008091E80082FFFCCFE0E0F1E08091F1009F
:10098000819381E0E730F807C9F78BEF8093E800A7
:1009900021C0323241F4213209F044C0E092090111
:1009A0000E945E0117C03323C9F429830E945E01AF
:1009B0002981223851F40093E9009091EB0081E005
:1009C00095FF80E01092E90001C080E08093F10083
:1009D0001092F1008EEF8093E80027C0313011F0C3
:1009E000333001F52230F1F4E114F104D9F40F773A
:1009F000802F81508430B0F48EEF8093E800009314
:100A0000E900333079F089E18093EB0081E090E0F8
:100A100002C0880F991F0A95E2F78093EA001092AE
:100A2000EA0003C081E28093EB000F90CF91DF9149
:100A3000FF91EF91BF91AF919F918F917F916F91B6
:100A40005F914F913F912F911F910F91FF90EF90E8
:100A50000F900FBE0F901F9018951F93CF93DF93A9
:100A6000EC01FE0121961491112349F01A3019F47A
:100A70008DE00E94BC01812F0E94BC01F2CFDF916A
:100A8000CF911F9108958A3010F490E301C097E34D
:100A9000890F0E94BC010895CF93C82F82958F7053
:100AA0000E9443058C2F8F700E944305CF910895BB
:100AB000CF93C82F892F0E944C058C2F0E944C0584
:100AC000CF9108950E944C050895EF92FF920F93E5
:100AD0001F93DF93CF93CDB7DEB727970FB6F89468
:100AE000DEBF0FBECDBF8E010F5F1F4F27E0F801A5
:100AF00011922A95E9F7B8014AE050E00E943E06BB
:100B000088E0E82EF12CEC0EFD1EF80181918F019A
:100B1000882311F00E94BC010E151F05B1F727961E
:100B20000FB6F894DEBF0FBECDBFCF91DF911F91FE
:100B30000F91FF90EF900895EF92FF920F931F9304
:100B4000DF93CF9300D000D000D0CDB7DEB78E01B9
:100B50000F5F1F4F26E0F80111922A95E9F7B801BF
:100B60004AE050E00E94B80696E0E92EF12CEC0E27
:100B7000FD1EF80181918F01882311F00E94BC01B4
:100B80000E151F05B1F726960FB6F894DEBF0FBEFF
:100B9000CDBFCF91DF911F910F91FF90EF900895FE
:100BA000EF92FF920F931F93DF93CF93CDB7DEB7F2
:100BB0002B970FB6F894DEBF0FBECDBF8E010F5F2F
:100BC0001F4F2BE0F80111922A95E9F7A8012AE0BE
:100BD00030E00E945F062CE0E22EF12CEC0EFD1EB0
:100BE000F80181918F01882311F00E94BC010E153C
:100BF0001F05B1F72B960FB6F894DEBF0FBECDBF21
:100C0000CF91DF911F910F91FF90EF900895EF9298
:100C1000FF920F931F93DF93CF93CDB7DEB72B9740
:100C20000FB6F894DEBF0FBECDBF8E010F5F1F4F12
:100C30002BE0F80111922A95E9F7A8012AE030E0AB
:100C40000E9493063BE0E32EF12CEC0EFD1EF80112
:100C500081918F01882311F00E94BC010E151F05A0
:100C6000B1F72B960FB6F894DEBF0FBECDBFCF9174
:100C7000DF911F910F91FF90EF900895FB019F016D
:100C8000E8944230C4F04532B4F44A3029F497FB7A
:100C90001EF4909581959F4F642F77270E94DE0662
:100CA000805D8A330CF0895D8193CB010097A1F7B9
:100CB00016F45DE251931082C9010C94CE06FA013C
:100CC000CF93FF93EF93223044F1253234F5C22FB6
:100CD000E894CA3049F497FB3EF49095809570955E
:100CE00061957F4F8F4F9F4F2C2F332744275527D8
:100CF000FF93EF930E94F206EF91FF91605D6A33DC
:100D00000CF0695D6193B901CA0160507040804088
:100D1000904051F716F4CDE2C19310828F919F91CC
:100D2000CF910C94CE06FA01CF93FF93EF9322302C
:100D3000CCF02532BCF4C22F2C2F33274427552763
:100D4000FF93EF930E94F206EF91FF91605D6A338B
:100D50000CF0695D6193B901CA0160507040804038
:100D6000904051F710828F919F91CF910C94CE06B5
:100D7000FB019F01423074F0453264F4642F772701
:100D80000E94DE06805D8A330CF0895D8193CB0181
:100D90000097A1F71082C9010C94CE06DC01FC017A
:100DA000672F71917723E1F7329704C07C916D939F
:100DB00070836291AE17BF07C8F30895AA1BBB1BCF
:100DC00051E107C0AA1FBB1FA617B70710F0A61B4B
:100DD000B70B881F991F5A95A9F780959095BC016C
:100DE000CD010895A1E21A2EAA1BBB1BFD010DC067
:100DF000AA1FBB1FEE1FFF1FA217B307E407F507CB
:100E000020F0A21BB30BE40BF50B661F771F881FA6
:100E1000991F1A9469F760957095809590959B013C
:0C0E2000AC01BD01CF010895F894FFCF94
:080E2C0000E1000000000800D5
:00000001FF
