:100000000C941E010C943B010C943B010C943B019D
:100010000C943B010C943B010C943B010C943B0170
:100020000C943B010C943B010C945F040C949904D8
:100030000C943B010C943B010C943B010C943B0150
:100040000C943B010C943B010C943B010C943B0140
:100050000C943B010C943B010C943B010C943B0130
:100060000C943B010C943B010C943B010C943B0120
:100070000C943B010C943B010C943B010C943B0110
:100080000C943B010C943B010C943B010C943B0100
:100090000C943B010C943B010C943B010C943B01F0
:1000A0000C943B010C943B010C943B010004FD03B8
:1000B000FA03F703F403F103EE03EB03E803E503AC
:1000C000E203DF03DC03D903D603D303D003CD035C
:1000D000CA03C703C403C103BE03BB03B803B5030C
:1000E000B203AF03AC03A903A603A303A0039D03BC
:1000F0009A039703940391038E038B03880385036C
:1001000082037F037C0379037603730370036D031B
:100110006A036703640361035E035B0358035503CB
:1001200052034F034C0349034603430340035468FF
:100130006520617665726167652068697474696EAF
:10014000672074696D65206973200074696D65208E
:100150006265747765656E206C617374206869747C
:10016000005354415254212121004869742074687D
:100170006520627574746F6E20746F2067657420DB
:1001800073746172746564210000010000BD011286
:1001900000020000CF01430003000012020401032B
:1001A0000904160212020309042A020603030904C1
:1001B0003202080001C112018036018136120100AD
:1001C0000202000010C0167A0400010102030109B6
:1001D000024300020100C0320904000001020201D2
:1001E0000005240010010524010101042402060574
:1001F00024060001070582031000400904010002E3
:100200000A000000070503024000000705840240C1
:1002100000000403090412034A002E0020004600D7
:10022000690065006E006500000006034D003200A5
:1002300000000803340031003000000011241FBE0C
:10024000CFEFDAE0DEBFCDBF11E0A0E0B1E0E8EA39
:10025000F3E102C005900D92A830B107D9F711E083
:10026000A8E0B1E001C01D92A031B107E1F70E9402
:1002700057010C94D2090C940000C59BFECFC59A7F
:10028000809196009091970020910C0130910D0182
:10029000821B930B90930F0180930E018091960027
:1002A0009091970090930D0180930C010895DF9237
:1002B000EF92FF920F931F93CF93DF930E94370229
:1002C0008091910081608093910080919100846081
:1002D000809391008AE691E00E9401068AE00E94E4
:1002E00090028DE00E9490020E943D018091910059
:1002F00090E4892780939100C3E0D0E0CE010E9472
:1003000070068AE00E9490028DE00E9490028FEFBA
:1003100093EDA0E381509040A040E1F700C00000C1
:1003200021979FEFCF3FD90749F781E691E00E94DF
:1003300001068AE00E9490028DE00E9490021092D5
:100340000D0110920C0110920F0110920E011092EB
:1003500097001092960010E000E0FF24EE24C1E028
:10036000D0E080E4D82E0E943D018BE491E00E9411
:1003700001068DE00E94900280910E0190910F0184
:100380000E9470068AE00E9490028DE00E94900216
:100390008DE00E949002809191008D2580939100C4
:1003A000C130D10509F44BC060910E0170910F016D
:1003B00080E090E00E940B089B01AC01D801F7019E
:1003C0006B2F702F8F2F9E2D0E941307162F072F34
:1003D000F82EE92E8EE291E00E9401068DE00E9447
:1003E0009002BE0161507040882777FD8095982F5C
:1003F0000E940D089B01AC01D801F7016B2F7A2FE9
:100400008F2F9E2F0E94770720E030E040E854E4D1
:100410000E94990820E030E04AE756E40E947707FE
:100420000E94DF07DC01CB010E9470068AE00E9477
:1004300090028DE00E9490028DE00E949002219631
:10044000C730D10509F08FCFFFCF20E030E040E882
:1004500054E40E94990820E030E04AE756E40E9404
:10046000770708958091E80080FFFCCF089581E030
:100470008093D70080EA8093D80082E189BD09B4D7
:1004800000FEFDCF80E98093D8001092E00010922A
:100490000801109209018CE08093E200789408959D
:1004A0008091080108959FB7F894809108018823EE
:1004B00039F083E08093E9008091E80085FD03C076
:1004C0009FBF8FEF08958091F1002091E80025FDF6
:1004D00003C02BE62093E8009FBF08959FB7F894D0
:1004E00080910801882331F083E08093E9008091B6
:1004F000F20001C080E09FBF089580910801882329
:1005000071F08FB7F89493E09093E9009BE602C0F6
:100510009093E8002091E80025FDFACF8FBF089561
:10052000909108019923D1F19FB7F89424E020938A
:10053000E90020910B01222341F02091E80025FDE4
:1005400002C09FBF2BC010920B012091E400275ED8
:1005500034E04091E80045FD12C09FBF9091E40057
:10056000921721F481E080930B0118C0909108014B
:100570009923B1F09FB7F8943093E900EACF8093C4
:10058000F1008091E80085FD03C08AE38093E800D4
:1005900085E080930A019FBF80E008958FEF089562
:1005A0008FEF0895909108019923D9F09FB7F8949F
:1005B00024E02093E9002091E80025FD03C09FBFBF
:1005C0008FEF08958093F1008091E80085FD03C0CE
:1005D0008AE38093E80085E080930A019FBF80E072
:1005E00008958FEF0895CF93DC018091080188234F
:1005F00009F41AC12FB7F89484E08093E900809140
:100600000B01882309F405C18091E80085FD02C033
:100610002FBF0AC110920B01FCC08091E400875EDD
:100620009091E80095FD13C02FBF9091E4009817BA
:1006300021F481E080930B01F7C090910801992388
:1006400009F4F2C02FB7F894C093E900E9CF809184
:10065000F200E52FE81B8E2F90E06817790708F469
:10066000E62F6E1B7109F0E0E134F10508F0C5C01A
:10067000EA5AFF4FEE0FFF1F0590F491E02D099409
:100680008D918093F1008D918093F1008D918093F5
:10069000F1008D918093F1008D918093F1008D9107
:1006A0008093F1008D918093F1008D918093F10002
:1006B0008D918093F1008D918093F1008D918093C5
:1006C000F1008D918093F1008D918093F1008D91D7
:1006D0008093F1008D918093F1008D918093F100D2
:1006E0008D918093F1008D918093F1008D91809395
:1006F000F1008D918093F1008D918093F1008D91A7
:100700008093F1008D918093F1008D918093F100A1
:100710008D918093F1008D918093F1008D91809364
:10072000F1008D918093F1008D918093F1008D9176
:100730008093F1008D918093F1008D918093F10071
:100740008D918093F1008D918093F1008D91809334
:10075000F1008D918093F1008D918093F1008D9146
:100760008093F1008D918093F1008D918093F10041
:100770008D918093F1008D918093F1008D91809304
:10078000F1008D918093F1008D918093F1008D9116
:100790008093F1008D918093F1008D918093F10011
:1007A0008D918093F1008D918093F1008D918093D4
:1007B000F1008D918093F1008D918093F1008D91E6
:1007C0008093F1008D918093F1008D918093F100E1
:1007D0008D918093F1008D918093F1008D918093A4
:1007E000F1008D918093F1008D918093F1008D91B6
:1007F0008093F1008D918093F1008D918093F100B1
:100800008091E80085FD02C04093E80030930A0122
:1008100004C0C4E050E44AE335E06115710509F015
:10082000FCCE2FBF80E001C08FEFCF9108958FB72E
:10083000F89490910A01992341F094E09093E90093
:100840009AE39093E80010920A018FBF0895809177
:10085000040108958091050108958091060108958D
:100860008091090108959FB7F894209108012223EF
:1008700039F022E02093E9003091E80035FD03C013
:100880009FBF8FEF089531EA3093F10030E230934B
:10089000F1001092F1001092F1001092F10010920C
:1008A000F1002093F1001092F1008093F10010927A
:1008B000F1008AE38093E8009FBF80E008951F92D3
:1008C0000F920FB60F9211248F939F938091E100A6
:1008D0001092E10083FF11C01092E90091E0909323
:1008E000EB001092EC0092E19093ED0098E0909371
:1008F000F000109208011092090182FF13C080914C
:100900000801882379F080910A01882359F08150E9
:1009100080930A01882331F484E08093E9008AE31C
:100920008093E8009F918F910F900FBE0F901F90C2
:1009300018951F920F920FB60F921124EF92FF920B
:100940000F931F932F933F934F935F936F937F93D7
:100950008F939F93AF93BF93EF93FF93DF93CF93C7
:100960000F92CDB7DEB71092E9008091E80083FFC7
:100970002DC12091F1003091F100E090F100FF24B1
:100980004091F100942F80E0E82AF92A0091F100CB
:1009900010E04091F100942F80E0082B192B60911A
:1009A000F100A091F10082EF8093E800363009F069
:1009B00059C080E991E09C0125503040FC013797F7
:1009C000459154914E155F05F9F4F9014591549103
:1009D00040175107C9F42E5F3F4FF901859194915B
:1009E0002E5F3F4FF9012491462F50E07A2F60E0AF
:1009F000462B572B4F3F510519F010F04FEF50E0A9
:100A0000421750F4242F08C00796295F3F4FF1E0AA
:100A10008A3B9F0799F6DAC0AEEF4091E80050E0BC
:100A2000BA016570707061157105B9F342FDD1C0EE
:100A3000322F213108F030E1AC01632F07C0FA01F9
:100A40004F5F5F4FE491E093F10061506623B9F787
:100A5000830F911D231BA093E8002223F1F6303170
:100A6000E1F2B7C0353051F48EEF8093E8000E9478
:100A700032028E2D80688093E300ABC0393051F58F
:100A8000222309F0A3C0E0920801109209011092FC
:100A90000A018EEF8093E80041E083EB91E0409300
:100AA000E900FC010196E491E093EB00EE2369F08C
:100AB0009C012F5F3F4FFC0184918093EC00C901A2
:100AC0000196F90124912093ED004F5F453039F7ED
:100AD0008EE177C0383051F4203809F077C00E9499
:100AE0003202809108018093F10048C0313279F4DC
:100AF000213A09F06BC00E943202E0E0F1E08191FE
:100B00008093F10041E0E730F407C9F737C0303295
:100B1000A1F4213209F05AC08091E80082FFFCCF95
:100B2000E0E0F1E08091F100819381E0E730F807A7
:100B3000C9F78BEF8093E80021C0323241F42132B3
:100B400009F044C0E09209010E94320217C0332329
:100B5000C9F429830E9432022981223851F400937A
:100B6000E9009091EB0081E095FF80E01092E900B0
:100B700001C080E08093F1001092F1008EEF80932D
:100B8000E80027C0313011F0333001F52230F1F4A4
:100B9000E114F104D9F40F77802F81508430B0F440
:100BA0008EEF8093E8000093E900333079F089E11B
:100BB0008093EB0081E090E002C0880F991F0A95B6
:100BC000E2F78093EA001092EA0003C081E280938A
:100BD000EB000F90CF91DF91FF91EF91BF91AF911B
:100BE0009F918F917F916F915F914F913F912F9145
:100BF0001F910F91FF90EF900F900FBE0F901F90DD
:100C000018951F93CF93DF93EC01FE012196149169
:100C1000112349F01A3019F48DE00E949002812FBF
:100C20000E949002F2CFDF91CF911F9108958A30F8
:100C300010F490E301C097E3890F0E949002089599
:100C4000CF93C82F82958F700E9417068C2F8F70BC
:100C50000E941706CF910895CF93C82F892F0E9425
:100C600020068C2F0E942006CF9108950E94200616
:100C70000895EF92FF920F931F93DF93CF93CDB719
:100C8000DEB727970FB6F894DEBF0FBECDBF8E013B
:100C90000F5F1F4F27E0F80111922A95E9F7B8017D
:100CA0004AE050E00E94FC0888E0E82EF12CEC0EAF
:100CB000FD1EF80181918F01882311F00E9490029E
:100CC0000E151F05B1F727960FB6F894DEBF0FBEBD
:100CD000CDBFCF91DF911F910F91FF90EF900895BD
:100CE000EF92FF920F931F93DF93CF9300D000D02A
:100CF00000D0CDB7DEB78E010F5F1F4F26E0F801A1
:100D000011922A95E9F7B8014AE050E00E9476096D
:100D100096E0E92EF12CEC0EFD1EF80181918F0179
:100D2000882311F00E9490020E151F05B1F7269638
:100D30000FB6F894DEBF0FBECDBFCF91DF911F91EC
:100D40000F91FF90EF900895EF92FF920F931F93F2
:100D5000DF93CF93CDB7DEB72B970FB6F894DEBFF6
:100D60000FBECDBF8E010F5F1F4F2BE0F801119218
:100D70002A95E9F7A8012AE030E00E941D092CE03D
:100D8000E22EF12CEC0EFD1EF80181918F018823DB
:100D900011F00E9490020E151F05B1F72B960FB6A9
:100DA000F894DEBF0FBECDBFCF91DF911F910F91A1
:100DB000FF90EF900895EF92FF920F931F93DF93B0
:100DC000CF93CDB7DEB72B970FB6F894DEBF0FBE2B
:100DD000CDBF8E010F5F1F4F2BE0F80111922A95B6
:100DE000E9F7A8012AE030E00E9451093BE0E32E38
:100DF000F12CEC0EFD1EF80181918F01882311F07A
:100E00000E9490020E151F05B1F72B960FB6F894AD
:100E1000DEBF0FBECDBFCF91DF911F910F91FF902D
:100E2000EF9008955058BB27AA270ED048C139D15A
:100E300030F03ED120F031F49F3F11F41EF42EC16A
:100E40000EF4E095E7FB24C1E92F4AD180F3BA17ED
:100E5000620773078407950718F071F49EF562C165
:100E60000EF4E0950B2EBA2FA02D0B01B9019001C5
:100E70000C01CA01A0011124FF27591B99F0593F09
:100E800050F4503E68F11A16F040A22F232F342F51
:100E90004427585FF3CF469537952795A795F0409F
:100EA0005395C9F77EF41F16BA0B620B730B840BB4
:100EB000BAF09150A1F0FF0FBB1F661F771F881F6C
:100EC000C2F70EC0BA0F621F731F841F48F48795C4
:100ED00077956795B795F7959E3F08F0B3CF9395B3
:100EE000880F08F09927EE0F9795879508950CD0F5
:100EF000E6C0DED040F0D5D030F021F45F3F19F0ED
:100F0000C7C0511110C1CAC0EBD098F39923C9F3DF
:100F10005523B1F3951B550BBB27AA2762177307FF
:100F2000840738F09F5F5F4F220F331F441FAA1FB3
:100F3000A9F333D00E2E3AF0E0E830D09150504073
:100F4000E695001CCAF729D0FE2F27D0660F771F21
:100F5000881FBB1F261737074807AB07B0E809F003
:100F6000BB0B802DBF01FF2793585F4F2AF09E3F98
:100F7000510568F08DC0D7C05F3FECF3983EDCF3BD
:100F8000869577956795B795F7959F5FC9F7880F11
:100F9000911D9695879597F90895E1E0660F771F63
:100FA000881FBB1F621773078407BA0720F0621BF4
:100FB000730B840BBA0BEE1F88F7E095089598D059
:100FC00088F09F5790F0B92F9927B751A0F0D1F032
:100FD000660F771F881F991F1AF0BA95C9F712C0BC
:100FE000B13081F09FD0B1E008959CC0672F782F79
:100FF0008827B85F39F0B93FCCF386957795679528
:10100000B395D9F73EF490958095709561957F4F93
:101010008F4F9F4F0895E89409C097FB3EF4909539
:101020008095709561957F4F8F4F9F4F9923A9F0C1
:10103000F92F96E9BB279395F69587957795679550
:10104000B795F111F8CFFAF4BB0F11F460FF1BC094
:101050006F5F7F4F8F4F9F4F16C0882311F096E927
:1010600011C0772321F09EE8872F762F05C06623D5
:1010700071F096E8862F70E060E02AF09A95660F8E
:10108000771F881FDAF7880F9695879597F9089547
:1010900097F99F6780E870E060E008959FEF80EC2B
:1010A000089500240A9416161706180609060895CE
:1010B00000240A9412161306140605060895092E34
:1010C0000394000C11F4882352F0BB0F40F4BF2BA3
:1010D00011F460FF04C06F5F7F4F8F4F9F4F0895E3
:1010E00057FD9058440F551F59F05F3F71F04795D9
:1010F000880F97FB991F61F09F3F79F087950895BE
:10110000121613061406551FF2CF4695F1DF08C0DC
:10111000161617061806991FF1CF869571056105F9
:1011200008940895E894BB2766277727CB0197F9A1
:1011300008950BD0C4CFB5DF28F0BADF18F095239F
:1011400009F0A6CFABCF1124EECFCADFA0F3959F55
:10115000D1F3950F50E0551F629FF001729FBB279E
:10116000F00DB11D639FAA27F00DB11DAA1F649F4A
:101170006627B00DA11D661F829F2227B00DA11DFD
:10118000621F739FB00DA11D621F839FA00D611D83
:10119000221F749F3327A00D611D231F849F600DA4
:1011A000211D822F762F6A2F11249F5750408AF0DD
:1011B000E1F088234AF0EE0FFF1FBB1F661F771F69
:1011C000881F91505040A9F79E3F510570F060CFA5
:1011D000AACF5F3FECF3983EDCF386957795679551
:1011E000B795F795E7959F5FC1F7FE2B880F911D87
:1011F0009695879597F90895FB019F01E8944230F1
:10120000C4F04532B4F44A3029F497FB1EF49095AB
:1012100081959F4F642F77270E949C09805D8A33B8
:101220000CF0895D8193CB010097A1F716F45DE284
:1012300051931082C9010C948C09FA01CF93FF934A
:10124000EF93223044F1253234F5C22FE894CA30AE
:1012500049F497FB3EF490958095709561957F4F8A
:101260008F4F9F4F2C2F332744275527FF93EF9302
:101270000E94B009EF91FF91605D6A330CF0695DE7
:101280006193B901CA01605070408040904051F7AD
:1012900016F4CDE2C19310828F919F91CF910C945F
:1012A0008C09FA01CF93FF93EF932230CCF02532D3
:1012B000BCF4C22F2C2F332744275527FF93EF93DD
:1012C0000E94B009EF91FF91605D6A330CF0695D97
:1012D0006193B901CA01605070408040904051F75D
:1012E00010828F919F91CF910C948C09FB019F01EB
:1012F000423074F0453264F4642F77270E949C09D1
:10130000805D8A330CF0895D8193CB010097A1F752
:101310001082C9010C948C09DC01FC01672F7191CA
:101320007723E1F7329704C07C916D9370836291CB
:10133000AE17BF07C8F30895AA1BBB1B51E107C036
:10134000AA1FBB1FA617B70710F0A61BB70B881F55
:10135000991F5A95A9F780959095BC01CD010895E4
:10136000A1E21A2EAA1BBB1BFD010DC0AA1FBB1FA9
:10137000EE1FFF1FA217B307E407F50720F0A21B1B
:10138000B30BE40BF50B661F771F881F991F1A9488
:1013900069F760957095809590959B01AC01BD01B2
:0813A000CF010895F894FFCF7E
:0813A80000E100000000080054
:00000001FF
